{
  "_format": "hh3-artifact-1",
  "contractName": "MedChain",
  "sourceName": "contracts/MedChain.sol",
  "abi": [
    {
      "anonymous": false,
      "inputs": [
        {
          "indexed": true,
          "internalType": "address",
          "name": "patient",
          "type": "address"
        },
        {
          "indexed": true,
          "internalType": "address",
          "name": "doctor",
          "type": "address"
        }
      ],
      "name": "AccessGranted",
      "type": "event"
    },
    {
      "anonymous": false,
      "inputs": [
        {
          "indexed": true,
          "internalType": "address",
          "name": "patient",
          "type": "address"
        },
        {
          "indexed": true,
          "internalType": "address",
          "name": "doctor",
          "type": "address"
        }
      ],
      "name": "AccessRevoked",
      "type": "event"
    },
    {
      "anonymous": false,
      "inputs": [
        {
          "indexed": true,
          "internalType": "uint256",
          "name": "recordId",
          "type": "uint256"
        },
        {
          "indexed": true,
          "internalType": "address",
          "name": "patient",
          "type": "address"
        },
        {
          "indexed": false,
          "internalType": "string",
          "name": "ipfsHash",
          "type": "string"
        }
      ],
      "name": "RecordAdded",
      "type": "event"
    },
    {
      "inputs": [
        {
          "internalType": "address",
          "name": "",
          "type": "address"
        },
        {
          "internalType": "address",
          "name": "",
          "type": "address"
        }
      ],
      "name": "accessPermissions",
      "outputs": [
        {
          "internalType": "bool",
          "name": "",
          "type": "bool"
        }
      ],
      "stateMutability": "view",
      "type": "function"
    },
    {
      "inputs": [
        {
          "internalType": "uint256",
          "name": "",
          "type": "uint256"
        }
      ],
      "name": "allRecords",
      "outputs": [
        {
          "internalType": "string",
          "name": "ipfsHash",
          "type": "string"
        },
        {
          "internalType": "uint256",
          "name": "timestamp",
          "type": "uint256"
        },
        {
          "internalType": "address",
          "name": "owner",
          "type": "address"
        }
      ],
      "stateMutability": "view",
      "type": "function"
    },
    {
      "inputs": [
        {
          "internalType": "address",
          "name": "_patientAddress",
          "type": "address"
        }
      ],
      "name": "getPatientRecordHashes",
      "outputs": [
        {
          "internalType": "string[]",
          "name": "",
          "type": "string[]"
        }
      ],
      "stateMutability": "view",
      "type": "function"
    },
    {
      "inputs": [
        {
          "internalType": "address",
          "name": "_doctorAddress",
          "type": "address"
        }
      ],
      "name": "grantAccess",
      "outputs": [],
      "stateMutability": "nonpayable",
      "type": "function"
    },
    {
      "inputs": [
        {
          "internalType": "address",
          "name": "",
          "type": "address"
        },
        {
          "internalType": "uint256",
          "name": "",
          "type": "uint256"
        }
      ],
      "name": "patientRecords",
      "outputs": [
        {
          "internalType": "uint256",
          "name": "",
          "type": "uint256"
        }
      ],
      "stateMutability": "view",
      "type": "function"
    },
    {
      "inputs": [
        {
          "internalType": "address",
          "name": "_doctorAddress",
          "type": "address"
        }
      ],
      "name": "revokeAccess",
      "outputs": [],
      "stateMutability": "nonpayable",
      "type": "function"
    },
    {
      "inputs": [
        {
          "internalType": "string",
          "name": "_ipfsHash",
          "type": "string"
        }
      ],
      "name": "uploadRecord",
      "outputs": [],
      "stateMutability": "nonpayable",
      "type": "function"
    }
  ],
  "bytecode": "0x608060405234801561000f575f80fd5b506113238061001d5f395ff3fe608060405234801561000f575f80fd5b506004361061007b575f3560e01c80637fb869bb116100595780637fb869bb146100fd57806385e68531146101195780638840d6e31461013557806394f0df61146101655761007b565b80630ae5e7391461007f57806364b3b5251461009b5780637e257dc8146100cb575b5f80fd5b610099600480360381019061009491906109a2565b610195565b005b6100b560048036038101906100b091906109cd565b6102f0565b6040516100c29190610a25565b60405180910390f35b6100e560048036038101906100e09190610a71565b61031a565b6040516100f493929190610b44565b60405180910390f35b61011760048036038101906101129190610cac565b6103f3565b005b610133600480360381019061012e91906109a2565b610572565b005b61014f600480360381019061014a91906109a2565b61065e565b60405161015c9190610df6565b60405180910390f35b61017f600480360381019061017a9190610e16565b61090c565b60405161018c9190610e54565b60405180910390f35b5f73ffffffffffffffffffffffffffffffffffffffff168173ffffffffffffffffffffffffffffffffffffffff1603610203576040517f08c379a00000000000000000000000000000000000000000000000000000000081526004016101fa90610eb7565b60405180910390fd5b600160025f3373ffffffffffffffffffffffffffffffffffffffff1673ffffffffffffffffffffffffffffffffffffffff1681526020019081526020015f205f8373ffffffffffffffffffffffffffffffffffffffff1673ffffffffffffffffffffffffffffffffffffffff1681526020019081526020015f205f6101000a81548160ff0219169083151502179055508073ffffffffffffffffffffffffffffffffffffffff163373ffffffffffffffffffffffffffffffffffffffff167f9f520b3bfc56d06f7065d10b4683b3f57ac8895d5026cd176dee95ce1454cb8d60405160405180910390a350565b6002602052815f5260405f20602052805f5260405f205f915091509054906101000a900460ff1681565b5f8181548110610328575f80fd5b905f5260205f2090600302015f91509050805f01805461034790610f02565b80601f016020809104026020016040519081016040528092919081815260200182805461037390610f02565b80156103be5780601f10610395576101008083540402835291602001916103be565b820191905f5260205f20905b8154815290600101906020018083116103a157829003601f168201915b505050505090806001015490806002015f9054906101000a900473ffffffffffffffffffffffffffffffffffffffff16905083565b5f3390505f808054905090505f60405180606001604052808581526020014281526020018473ffffffffffffffffffffffffffffffffffffffff16815250908060018154018082558091505060019003905f5260205f2090600302015f909190919091505f820151815f01908161046a91906110cf565b50602082015181600101556040820151816002015f6101000a81548173ffffffffffffffffffffffffffffffffffffffff021916908373ffffffffffffffffffffffffffffffffffffffff160217905550505060015f8373ffffffffffffffffffffffffffffffffffffffff1673ffffffffffffffffffffffffffffffffffffffff1681526020019081526020015f2081908060018154018082558091505060019003905f5260205f20015f90919091909150558173ffffffffffffffffffffffffffffffffffffffff16817f4f1eea90beb2ccd16be5b37fc1e1272af00b7e01520eff654685171f4bab636a85604051610565919061119e565b60405180910390a3505050565b5f60025f3373ffffffffffffffffffffffffffffffffffffffff1673ffffffffffffffffffffffffffffffffffffffff1681526020019081526020015f205f8373ffffffffffffffffffffffffffffffffffffffff1673ffffffffffffffffffffffffffffffffffffffff1681526020019081526020015f205f6101000a81548160ff0219169083151502179055508073ffffffffffffffffffffffffffffffffffffffff163373ffffffffffffffffffffffffffffffffffffffff167f825c8be24eb0df19500f63e86c29e7d0d951e73056b889b891d85e40938d9b6e60405160405180910390a350565b606060025f8373ffffffffffffffffffffffffffffffffffffffff1673ffffffffffffffffffffffffffffffffffffffff1681526020019081526020015f205f3373ffffffffffffffffffffffffffffffffffffffff1673ffffffffffffffffffffffffffffffffffffffff1681526020019081526020015f205f9054906101000a900460ff16610724576040517f08c379a000000000000000000000000000000000000000000000000000000000815260040161071b9061122e565b60405180910390fd5b5f60015f8473ffffffffffffffffffffffffffffffffffffffff1673ffffffffffffffffffffffffffffffffffffffff1681526020019081526020015f208054806020026020016040519081016040528092919081815260200182805480156107aa57602002820191905f5260205f20905b815481526020019060010190808311610796575b505050505090505f815167ffffffffffffffff8111156107cd576107cc610b88565b5b60405190808252806020026020018201604052801561080057816020015b60608152602001906001900390816107eb5790505b5090505f5b8251811015610901575f8382815181106108225761082161124c565b5b60200260200101518154811061083b5761083a61124c565b5b905f5260205f2090600302015f01805461085490610f02565b80601f016020809104026020016040519081016040528092919081815260200182805461088090610f02565b80156108cb5780601f106108a2576101008083540402835291602001916108cb565b820191905f5260205f20905b8154815290600101906020018083116108ae57829003601f168201915b50505050508282815181106108e3576108e261124c565b5b602002602001018190525080806108f9906112a6565b915050610805565b508092505050919050565b6001602052815f5260405f208181548110610925575f80fd5b905f5260205f20015f91509150505481565b5f604051905090565b5f80fd5b5f80fd5b5f73ffffffffffffffffffffffffffffffffffffffff82169050919050565b5f61097182610948565b9050919050565b61098181610967565b811461098b575f80fd5b50565b5f8135905061099c81610978565b92915050565b5f602082840312156109b7576109b6610940565b5b5f6109c48482850161098e565b91505092915050565b5f80604083850312156109e3576109e2610940565b5b5f6109f08582860161098e565b9250506020610a018582860161098e565b9150509250929050565b5f8115159050919050565b610a1f81610a0b565b82525050565b5f602082019050610a385f830184610a16565b92915050565b5f819050919050565b610a5081610a3e565b8114610a5a575f80fd5b50565b5f81359050610a6b81610a47565b92915050565b5f60208284031215610a8657610a85610940565b5b5f610a9384828501610a5d565b91505092915050565b5f81519050919050565b5f82825260208201905092915050565b5f5b83811015610ad3578082015181840152602081019050610ab8565b5f8484015250505050565b5f601f19601f8301169050919050565b5f610af882610a9c565b610b028185610aa6565b9350610b12818560208601610ab6565b610b1b81610ade565b840191505092915050565b610b2f81610a3e565b82525050565b610b3e81610967565b82525050565b5f6060820190508181035f830152610b5c8186610aee565b9050610b6b6020830185610b26565b610b786040830184610b35565b949350505050565b5f80fd5b5f80fd5b7f4e487b71000000000000000000000000000000000000000000000000000000005f52604160045260245ffd5b610bbe82610ade565b810181811067ffffffffffffffff82111715610bdd57610bdc610b88565b5b80604052505050565b5f610bef610937565b9050610bfb8282610bb5565b919050565b5f67ffffffffffffffff821115610c1a57610c19610b88565b5b610c2382610ade565b9050602081019050919050565b828183375f83830152505050565b5f610c50610c4b84610c00565b610be6565b905082815260208101848484011115610c6c57610c6b610b84565b5b610c77848285610c30565b509392505050565b5f82601f830112610c9357610c92610b80565b5b8135610ca3848260208601610c3e565b91505092915050565b5f60208284031215610cc157610cc0610940565b5b5f82013567ffffffffffffffff811115610cde57610cdd610944565b5b610cea84828501610c7f565b91505092915050565b5f81519050919050565b5f82825260208201905092915050565b5f819050602082019050919050565b5f82825260208201905092915050565b5f610d3682610a9c565b610d408185610d1c565b9350610d50818560208601610ab6565b610d5981610ade565b840191505092915050565b5f610d6f8383610d2c565b905092915050565b5f602082019050919050565b5f610d8d82610cf3565b610d978185610cfd565b935083602082028501610da985610d0d565b805f5b85811015610de45784840389528151610dc58582610d64565b9450610dd083610d77565b925060208a01995050600181019050610dac565b50829750879550505050505092915050565b5f6020820190508181035f830152610e0e8184610d83565b905092915050565b5f8060408385031215610e2c57610e2b610940565b5b5f610e398582860161098e565b9250506020610e4a85828601610a5d565b9150509250929050565b5f602082019050610e675f830184610b26565b92915050565b7f496e76616c696420646f63746f722061646472657373000000000000000000005f82015250565b5f610ea1601683610aa6565b9150610eac82610e6d565b602082019050919050565b5f6020820190508181035f830152610ece81610e95565b9050919050565b7f4e487b71000000000000000000000000000000000000000000000000000000005f52602260045260245ffd5b5f6002820490506001821680610f1957607f821691505b602082108103610f2c57610f2b610ed5565b5b50919050565b5f819050815f5260205f209050919050565b5f6020601f8301049050919050565b5f82821b905092915050565b5f60088302610f8e7fffffffffffffffffffffffffffffffffffffffffffffffffffffffffffffffff82610f53565b610f988683610f53565b95508019841693508086168417925050509392505050565b5f819050919050565b5f610fd3610fce610fc984610a3e565b610fb0565b610a3e565b9050919050565b5f819050919050565b610fec83610fb9565b611000610ff882610fda565b848454610f5f565b825550505050565b5f90565b611014611008565b61101f818484610fe3565b505050565b5b81811015611042576110375f8261100c565b600181019050611025565b5050565b601f8211156110875761105881610f32565b61106184610f44565b81016020851015611070578190505b61108461107c85610f44565b830182611024565b50505b505050565b5f82821c905092915050565b5f6110a75f198460080261108c565b1980831691505092915050565b5f6110bf8383611098565b9150826002028217905092915050565b6110d882610a9c565b67ffffffffffffffff8111156110f1576110f0610b88565b5b6110fb8254610f02565b611106828285611046565b5f60209050601f831160018114611137575f8415611125578287015190505b61112f85826110b4565b865550611196565b601f19841661114586610f32565b5f5b8281101561116c57848901518255600182019150602085019450602081019050611147565b868310156111895784890151611185601f891682611098565b8355505b6001600288020188555050505b505050505050565b5f6020820190508181035f8301526111b68184610aee565b905092915050565b7f4163636573732044656e6965643a20596f7520646f206e6f74206861766520705f8201527f65726d697373696f6e2e00000000000000000000000000000000000000000000602082015250565b5f611218602a83610aa6565b9150611223826111be565b604082019050919050565b5f6020820190508181035f8301526112458161120c565b9050919050565b7f4e487b71000000000000000000000000000000000000000000000000000000005f52603260045260245ffd5b7f4e487b71000000000000000000000000000000000000000000000000000000005f52601160045260245ffd5b5f6112b082610a3e565b91507fffffffffffffffffffffffffffffffffffffffffffffffffffffffffffffffff82036112e2576112e1611279565b5b60018201905091905056fea2646970667358221220bdb29eedb5cb1302299c9165fea9cda525dd129217cebef290e1fe08c0fb3b0664736f6c63430008140033",
  "linkReferences": {},
  "deployedLinkReferences": {},
  "immutableReferences": {},
  "inputSourceName": "project/contracts/MedChain.sol",
  "buildInfoId": "solc-0_8_20-0b53de4ea77e2bd17f2503ebeb78b2329462b375"
}