{
  "_format": "hh3-artifact-1",
  "contractName": "MedChain",
  "sourceName": "contracts/MedChain.sol",
  "abi": [
    {
      "anonymous": false,
      "inputs": [
        {
          "indexed": true,
          "internalType": "address",
          "name": "patient",
          "type": "address"
        },
        {
          "indexed": true,
          "internalType": "address",
          "name": "doctor",
          "type": "address"
        }
      ],
      "name": "AccessGranted",
      "type": "event"
    },
    {
      "anonymous": false,
      "inputs": [
        {
          "indexed": true,
          "internalType": "address",
          "name": "patient",
          "type": "address"
        },
        {
          "indexed": true,
          "internalType": "address",
          "name": "doctor",
          "type": "address"
        }
      ],
      "name": "AccessRevoked",
      "type": "event"
    },
    {
      "anonymous": false,
      "inputs": [
        {
          "indexed": true,
          "internalType": "uint256",
          "name": "recordId",
          "type": "uint256"
        },
        {
          "indexed": true,
          "internalType": "address",
          "name": "patient",
          "type": "address"
        },
        {
          "indexed": false,
          "internalType": "string",
          "name": "ipfsHash",
          "type": "string"
        }
      ],
      "name": "RecordAdded",
      "type": "event"
    },
    {
      "inputs": [
        {
          "internalType": "address",
          "name": "",
          "type": "address"
        },
        {
          "internalType": "address",
          "name": "",
          "type": "address"
        }
      ],
      "name": "accessPermissions",
      "outputs": [
        {
          "internalType": "bool",
          "name": "",
          "type": "bool"
        }
      ],
      "stateMutability": "view",
      "type": "function"
    },
    {
      "inputs": [
        {
          "internalType": "uint256",
          "name": "",
          "type": "uint256"
        }
      ],
      "name": "allRecords",
      "outputs": [
        {
          "internalType": "string",
          "name": "ipfsHash",
          "type": "string"
        },
        {
          "internalType": "uint256",
          "name": "timestamp",
          "type": "uint256"
        },
        {
          "internalType": "address",
          "name": "owner",
          "type": "address"
        }
      ],
      "stateMutability": "view",
      "type": "function"
    },
    {
      "inputs": [],
      "name": "getMyRecords",
      "outputs": [
        {
          "internalType": "string[]",
          "name": "",
          "type": "string[]"
        }
      ],
      "stateMutability": "view",
      "type": "function"
    },
    {
      "inputs": [
        {
          "internalType": "address",
          "name": "_patientAddress",
          "type": "address"
        }
      ],
      "name": "getPatientRecordHashes",
      "outputs": [
        {
          "internalType": "string[]",
          "name": "",
          "type": "string[]"
        }
      ],
      "stateMutability": "view",
      "type": "function"
    },
    {
      "inputs": [
        {
          "internalType": "address",
          "name": "_doctorAddress",
          "type": "address"
        }
      ],
      "name": "grantAccess",
      "outputs": [],
      "stateMutability": "nonpayable",
      "type": "function"
    },
    {
      "inputs": [
        {
          "internalType": "address",
          "name": "",
          "type": "address"
        },
        {
          "internalType": "uint256",
          "name": "",
          "type": "uint256"
        }
      ],
      "name": "patientRecords",
      "outputs": [
        {
          "internalType": "uint256",
          "name": "",
          "type": "uint256"
        }
      ],
      "stateMutability": "view",
      "type": "function"
    },
    {
      "inputs": [
        {
          "internalType": "address",
          "name": "_doctorAddress",
          "type": "address"
        }
      ],
      "name": "revokeAccess",
      "outputs": [],
      "stateMutability": "nonpayable",
      "type": "function"
    },
    {
      "inputs": [
        {
          "internalType": "string",
          "name": "_ipfsHash",
          "type": "string"
        }
      ],
      "name": "uploadRecord",
      "outputs": [],
      "stateMutability": "nonpayable",
      "type": "function"
    }
  ],
  "bytecode": "0x608060405234801561000f575f80fd5b506115138061001d5f395ff3fe608060405234801561000f575f80fd5b5060043610610086575f3560e01c806385e685311161005957806385e68531146101245780638840d6e31461014057806394f0df6114610170578063e76637ce146101a057610086565b80630ae5e7391461008a57806364b3b525146100a65780637e257dc8146100d65780637fb869bb14610108575b5f80fd5b6100a4600480360381019061009f9190610bb8565b6101be565b005b6100c060048036038101906100bb9190610be3565b610319565b6040516100cd9190610c3b565b60405180910390f35b6100f060048036038101906100eb9190610c87565b610343565b6040516100ff93929190610d5a565b60405180910390f35b610122600480360381019061011d9190610ec2565b61041c565b005b61013e60048036038101906101399190610bb8565b610596565b005b61015a60048036038101906101559190610bb8565b610682565b604051610167919061100c565b60405180910390f35b61018a6004803603810190610185919061102c565b610935565b604051610197919061106a565b60405180910390f35b6101a8610960565b6040516101b5919061100c565b60405180910390f35b5f73ffffffffffffffffffffffffffffffffffffffff168173ffffffffffffffffffffffffffffffffffffffff160361022c576040517f08c379a0000000000000000000000000000000000000000000000000000000008152600401610223906110cd565b60405180910390fd5b600160025f3373ffffffffffffffffffffffffffffffffffffffff1673ffffffffffffffffffffffffffffffffffffffff1681526020019081526020015f205f8373ffffffffffffffffffffffffffffffffffffffff1673ffffffffffffffffffffffffffffffffffffffff1681526020019081526020015f205f6101000a81548160ff0219169083151502179055508073ffffffffffffffffffffffffffffffffffffffff163373ffffffffffffffffffffffffffffffffffffffff167f9f520b3bfc56d06f7065d10b4683b3f57ac8895d5026cd176dee95ce1454cb8d60405160405180910390a350565b6002602052815f5260405f20602052805f5260405f205f915091509054906101000a900460ff1681565b5f8181548110610351575f80fd5b905f5260205f2090600302015f91509050805f01805461037090611118565b80601f016020809104026020016040519081016040528092919081815260200182805461039c90611118565b80156103e75780601f106103be576101008083540402835291602001916103e7565b820191905f5260205f20905b8154815290600101906020018083116103ca57829003601f168201915b505050505090806001015490806002015f9054906101000a900473ffffffffffffffffffffffffffffffffffffffff16905083565b5f808054905090505f60405180606001604052808481526020014281526020013373ffffffffffffffffffffffffffffffffffffffff16815250908060018154018082558091505060019003905f5260205f2090600302015f909190919091505f820151815f01908161048f91906112e5565b50602082015181600101556040820151816002015f6101000a81548173ffffffffffffffffffffffffffffffffffffffff021916908373ffffffffffffffffffffffffffffffffffffffff160217905550505060015f3373ffffffffffffffffffffffffffffffffffffffff1673ffffffffffffffffffffffffffffffffffffffff1681526020019081526020015f2081908060018154018082558091505060019003905f5260205f20015f90919091909150553373ffffffffffffffffffffffffffffffffffffffff16817f4f1eea90beb2ccd16be5b37fc1e1272af00b7e01520eff654685171f4bab636a8460405161058a91906113b4565b60405180910390a35050565b5f60025f3373ffffffffffffffffffffffffffffffffffffffff1673ffffffffffffffffffffffffffffffffffffffff1681526020019081526020015f205f8373ffffffffffffffffffffffffffffffffffffffff1673ffffffffffffffffffffffffffffffffffffffff1681526020019081526020015f205f6101000a81548160ff0219169083151502179055508073ffffffffffffffffffffffffffffffffffffffff163373ffffffffffffffffffffffffffffffffffffffff167f825c8be24eb0df19500f63e86c29e7d0d951e73056b889b891d85e40938d9b6e60405160405180910390a350565b606060025f8373ffffffffffffffffffffffffffffffffffffffff1673ffffffffffffffffffffffffffffffffffffffff1681526020019081526020015f205f3373ffffffffffffffffffffffffffffffffffffffff1673ffffffffffffffffffffffffffffffffffffffff1681526020019081526020015f205f9054906101000a900460ff16610748576040517f08c379a000000000000000000000000000000000000000000000000000000000815260040161073f9061141e565b60405180910390fd5b5f60015f8473ffffffffffffffffffffffffffffffffffffffff1673ffffffffffffffffffffffffffffffffffffffff1681526020019081526020015f208054806020026020016040519081016040528092919081815260200182805480156107ce57602002820191905f5260205f20905b8154815260200190600101908083116107ba575b505050505090505f815167ffffffffffffffff8111156107f1576107f0610d9e565b5b60405190808252806020026020018201604052801561082457816020015b606081526020019060019003908161080f5790505b5090505f5b825181101561092a575f8382815181106108465761084561143c565b5b602002602001015190505f81815481106108635761086261143c565b5b905f5260205f2090600302015f01805461087c90611118565b80601f01602080910402602001604051908101604052809291908181526020018280546108a890611118565b80156108f35780601f106108ca576101008083540402835291602001916108f3565b820191905f5260205f20905b8154815290600101906020018083116108d657829003601f168201915b505050505083838151811061090b5761090a61143c565b5b602002602001018190525050808061092290611496565b915050610829565b508092505050919050565b6001602052815f5260405f20818154811061094e575f80fd5b905f5260205f20015f91509150505481565b60605f60015f3373ffffffffffffffffffffffffffffffffffffffff1673ffffffffffffffffffffffffffffffffffffffff1681526020019081526020015f208054806020026020016040519081016040528092919081815260200182805480156109e857602002820191905f5260205f20905b8154815260200190600101908083116109d4575b505050505090505f815167ffffffffffffffff811115610a0b57610a0a610d9e565b5b604051908082528060200260200182016040528015610a3e57816020015b6060815260200190600190039081610a295790505b5090505f5b8251811015610b44575f838281518110610a6057610a5f61143c565b5b602002602001015190505f8181548110610a7d57610a7c61143c565b5b905f5260205f2090600302015f018054610a9690611118565b80601f0160208091040260200160405190810160405280929190818152602001828054610ac290611118565b8015610b0d5780601f10610ae457610100808354040283529160200191610b0d565b820191905f5260205f20905b815481529060010190602001808311610af057829003601f168201915b5050505050838381518110610b2557610b2461143c565b5b6020026020010181905250508080610b3c90611496565b915050610a43565b50809250505090565b5f604051905090565b5f80fd5b5f80fd5b5f73ffffffffffffffffffffffffffffffffffffffff82169050919050565b5f610b8782610b5e565b9050919050565b610b9781610b7d565b8114610ba1575f80fd5b50565b5f81359050610bb281610b8e565b92915050565b5f60208284031215610bcd57610bcc610b56565b5b5f610bda84828501610ba4565b91505092915050565b5f8060408385031215610bf957610bf8610b56565b5b5f610c0685828601610ba4565b9250506020610c1785828601610ba4565b9150509250929050565b5f8115159050919050565b610c3581610c21565b82525050565b5f602082019050610c4e5f830184610c2c565b92915050565b5f819050919050565b610c6681610c54565b8114610c70575f80fd5b50565b5f81359050610c8181610c5d565b92915050565b5f60208284031215610c9c57610c9b610b56565b5b5f610ca984828501610c73565b91505092915050565b5f81519050919050565b5f82825260208201905092915050565b5f5b83811015610ce9578082015181840152602081019050610cce565b5f8484015250505050565b5f601f19601f8301169050919050565b5f610d0e82610cb2565b610d188185610cbc565b9350610d28818560208601610ccc565b610d3181610cf4565b840191505092915050565b610d4581610c54565b82525050565b610d5481610b7d565b82525050565b5f6060820190508181035f830152610d728186610d04565b9050610d816020830185610d3c565b610d8e6040830184610d4b565b949350505050565b5f80fd5b5f80fd5b7f4e487b71000000000000000000000000000000000000000000000000000000005f52604160045260245ffd5b610dd482610cf4565b810181811067ffffffffffffffff82111715610df357610df2610d9e565b5b80604052505050565b5f610e05610b4d565b9050610e118282610dcb565b919050565b5f67ffffffffffffffff821115610e3057610e2f610d9e565b5b610e3982610cf4565b9050602081019050919050565b828183375f83830152505050565b5f610e66610e6184610e16565b610dfc565b905082815260208101848484011115610e8257610e81610d9a565b5b610e8d848285610e46565b509392505050565b5f82601f830112610ea957610ea8610d96565b5b8135610eb9848260208601610e54565b91505092915050565b5f60208284031215610ed757610ed6610b56565b5b5f82013567ffffffffffffffff811115610ef457610ef3610b5a565b5b610f0084828501610e95565b91505092915050565b5f81519050919050565b5f82825260208201905092915050565b5f819050602082019050919050565b5f82825260208201905092915050565b5f610f4c82610cb2565b610f568185610f32565b9350610f66818560208601610ccc565b610f6f81610cf4565b840191505092915050565b5f610f858383610f42565b905092915050565b5f602082019050919050565b5f610fa382610f09565b610fad8185610f13565b935083602082028501610fbf85610f23565b805f5b85811015610ffa5784840389528151610fdb8582610f7a565b9450610fe683610f8d565b925060208a01995050600181019050610fc2565b50829750879550505050505092915050565b5f6020820190508181035f8301526110248184610f99565b905092915050565b5f806040838503121561104257611041610b56565b5b5f61104f85828601610ba4565b925050602061106085828601610c73565b9150509250929050565b5f60208201905061107d5f830184610d3c565b92915050565b7f496e76616c696420646f63746f722061646472657373000000000000000000005f82015250565b5f6110b7601683610cbc565b91506110c282611083565b602082019050919050565b5f6020820190508181035f8301526110e4816110ab565b9050919050565b7f4e487b71000000000000000000000000000000000000000000000000000000005f52602260045260245ffd5b5f600282049050600182168061112f57607f821691505b602082108103611142576111416110eb565b5b50919050565b5f819050815f5260205f209050919050565b5f6020601f8301049050919050565b5f82821b905092915050565b5f600883026111a47fffffffffffffffffffffffffffffffffffffffffffffffffffffffffffffffff82611169565b6111ae8683611169565b95508019841693508086168417925050509392505050565b5f819050919050565b5f6111e96111e46111df84610c54565b6111c6565b610c54565b9050919050565b5f819050919050565b611202836111cf565b61121661120e826111f0565b848454611175565b825550505050565b5f90565b61122a61121e565b6112358184846111f9565b505050565b5b818110156112585761124d5f82611222565b60018101905061123b565b5050565b601f82111561129d5761126e81611148565b6112778461115a565b81016020851015611286578190505b61129a6112928561115a565b83018261123a565b50505b505050565b5f82821c905092915050565b5f6112bd5f19846008026112a2565b1980831691505092915050565b5f6112d583836112ae565b9150826002028217905092915050565b6112ee82610cb2565b67ffffffffffffffff81111561130757611306610d9e565b5b6113118254611118565b61131c82828561125c565b5f60209050601f83116001811461134d575f841561133b578287015190505b61134585826112ca565b8655506113ac565b601f19841661135b86611148565b5f5b828110156113825784890151825560018201915060208501945060208101905061135d565b8683101561139f578489015161139b601f8916826112ae565b8355505b6001600288020188555050505b505050505050565b5f6020820190508181035f8301526113cc8184610d04565b905092915050565b7f4163636573732064656e696564000000000000000000000000000000000000005f82015250565b5f611408600d83610cbc565b9150611413826113d4565b602082019050919050565b5f6020820190508181035f830152611435816113fc565b9050919050565b7f4e487b71000000000000000000000000000000000000000000000000000000005f52603260045260245ffd5b7f4e487b71000000000000000000000000000000000000000000000000000000005f52601160045260245ffd5b5f6114a082610c54565b91507fffffffffffffffffffffffffffffffffffffffffffffffffffffffffffffffff82036114d2576114d1611469565b5b60018201905091905056fea26469706673582212203ab48165aa74a430654fbe02b540081a9014855537cc47cbd8d3d7adbbc8bf2464736f6c63430008140033",
  "linkReferences": {},
  "deployedLinkReferences": {},
  "immutableReferences": {},
  "inputSourceName": "project/contracts/MedChain.sol",
  "buildInfoId": "solc-0_8_20-dee9bf51d551d303ec5bc160853ed59449e5c523"
}